:020000040800F2
:10000000603D00209D01000817330008FB32000806
:10001000FF32000803330008073300080000000027
:100020000000000000000000000000000B3300088A
:100030000F3300080000000013330008F5320008F9
:10004000B7010008B7010008B7010008B7010008B0
:10005000B7010008B7010008B7010008B7010008A0
:10006000B7010008B7010008B7010008F73200081F
:10007000B7010008B7010008B7010008B701000880
:10008000B7010008F9320008B7010008B7010008FD
:10009000B7010008B7010008B7010008B701000860
:1000A000B7010008512B0008B7010008B70100088C
:1000B00025300008B7010008B7010008B7010008A3
:1000C000B7010008B7010008B7010008B701000830
:1000D000B7010008B7010008B7010008B701000820
:1000E000B7010008B7010008B7010008B701000810
:1000F000912F0008B7010008B7010008B7010008F8
:10010000B7010008B7010008D12C0008B7010008AA
:10011000B7010008B7010008B7010008B7010008DF
:10012000B7010008B7010008B7010008B7010008CF
:10013000B7010008B7010008B7010008B7010008BF
:10014000B7010008B7010008B7010008B7010008AF
:10015000B7010008B7010008B7010008B70100089F
:10016000B7010008B7010008B7010008B70100088F
:10017000B7010008B7010008B7010008B70100087F
:10018000B7010008B7010008DFF80CD004F058F8F8
:10019000004800476B330008603D00200648804758
:1001A00006480047FEE7FEE7FEE7FEE7FEE7FEE75C
:1001B000FEE7FEE7FEE7FEE79D0200088901000872
:1001C0000CB50020019000907648006840F4803023
:1001D0007449086000BF7348006800F40030009064
:1001E0000198401C0190009818B90198B0F5A04FF3
:1001F000F1D16C48006800F4003010B1012000908B
:1002000001E0002000900098012846D16548403068
:10021000006840F0805063494031086062480068DF
:1002200040F44040604908605E48083000685D491D
:10023000083108600846006840F40040086008463D
:10024000006840F4A05008605848091F0860081F63
:10025000006840F08070091F086000BF51480068C6
:1002600000F000700028F9D040F205705049086095
:100270004C480830006820F003004A490831086003
:100280000846006840F00200086000BF454808309A
:10029000006800F00C000828F8D10CBD10B54548E6
:1002A000006840F47000434908603E48006840F030
:1002B00001003C49086000203A490831086039488B
:1002C00000683D490840374908603C48091D0860FE
:1002D000081F006820F48020091F086000203149B1
:1002E0000C310860FFF76CFF4FF000603149803936
:1002F000086010BD70B500200022022300240221F6
:10030000284D08352D6805F00C0020B1042806D0D2
:10031000082834D107E02A4D2A4E356033E02A4DB3
:10032000284E35602FE01F4D2D1D2D68C5F38054DC
:100330001C4D2D1D2D6805F03F0154B1224DB5FB1C
:10034000F1F5184E361D3668C6F3881605FB06F221
:1003500009E01B4DB5FBF1F5124E361D3668C6F3AC
:10036000881605FB06F20F4D2D1D2D68C5F30145BE
:100370006D1C6B00B2FBF3F5124E356003E0104DBF
:10038000104E356000BF00BF064D08352D68C5F31F
:1003900003150E4E705D0B4D2D68C540094E35603E
:1003A00070BD000000380240007000400854400753
:1003B000003C024088ED00E0FFFFF6FE1030002414
:1003C0000024F4000000002000127A000400002045
:1003D00032490143324A1160704770B50021002351
:1003E0000F22C4781CB32E4C246804F4E064C4F5D6
:1003F000E064C4F30721C1F10404E3B20A41447884
:100400009C40E1B28478144021430C07210E254C16
:1004100005786155047804F01F050124AC40057887
:100420006D11AD0005F1E025C5F8004109E0047843
:1004300004F01F050124AC401B4D0678761145F8E9
:10044000264070BD194A0A400243154B1B1F1A6013
:10045000704739B1124A121D12680243104B1B1D1E
:100460001A6006E00E4A121D126882430C4B1B1DD7
:100470001A607047042808D14FF0E021096941F063
:1004800004014FF0E022116107E04FF0E02109691B
:1004900021F004014FF0E022116170470000FA05DD
:1004A0000CED00E000E400E080E100E080FFFF1FD1
:1004B000F948006840F00100F74908600020F6495B
:1004C00008310860F4480068F4490840F2490860BF
:1004D000F348091D0860F348EF4984310860F0488B
:1004E0001038091D0860EC48006820F48020EA49B3
:1004F00008600020E8490C310860E7498C31086049
:1005000070470021E44A921C117011460870704730
:1005100010B501460022002300204A11012A02D111
:10052000DD4C236808E0022A03D1DB4C70342368D9
:1005300002E0D94C7434236801F01F020124944076
:100540001C400CB1012000E0002010BD38B5002097
:1005500000900024002500BF3120FFF7D9FF054699
:100560000098401C00900098B0F5A04F01D0002DDD
:10057000F2D03120FFF7CCFF08B1012400E00024C5
:10058000204638BD01460020C34A106820F0F8001C
:1005900040EAC10010607047C349086070470021FD
:1005A000BD4A703211701170012802D004280AD19E
:1005B00004E00121B84A7032117005E00521B64A05
:1005C0007032117000E000BF00BF7047B74908608B
:1005D000704770B5049C41EA82150126C6EB5306AC
:1005E00045EA0645054345EA0465AB4E361D3560D0
:1005F00070BDAD4908667047820142EA0172A64BA0
:1006000084331A607047A8498866704710B5830123
:1006100043EA016343EA02739F4C8834236010BDB0
:10062000A14908677047A049C86470470246002086
:10063000994B0833186820F0EC6042EA0103184334
:10064000954B08331860704702460020924B0833E0
:10065000186820F0784042EA010318438E4B0833B3
:1006600018607047014600208B4A0832106820F05D
:10067000030008431060704787480830006800F0A6
:100680000C00704701460020834A0832106820F0B1
:10069000F000084310607047014600207E4A08328F
:1006A000106820F4E05008431060704701460020B5
:1006B000794A0832106820F4604040EAC1001060B6
:1006C0007047F0B5002100220024022500260223F5
:1006D000714F08373F6807F00C0121B1042905D09C
:1006E000082937D105E0724F076036E0714F076087
:1006F00033E0694F3F1D3F68C7F38056664F3F1D8B
:100700003F6807F03F036EB16A4FB7FBF3F7DFF8BE
:1007100088C10CF1040CDCF800C0CCF3881C07FB8A
:100720000CF40CE0624FB7FBF3F7DFF86CC10CF18F
:10073000040CDCF800C0CCF3881C07FB0CF4564F0B
:100740003F1D3F68C7F301477F1C7D00B4FBF5F7F1
:10075000076002E0564F076000BF00BF4E4F0837EA
:100760003F6807F0F0010909534F7A5C0768D740EA
:100770004760494F08373F6807F4E051890A4E4FF8
:100780007A5C4768D7408760434F08373F6807F473
:100790006041490B484F7A5C4768D740C760F0BD5D
:1007A000002100F44072B2F5407F0AD13A4A083283
:1007B000116821F4F811414A02401143364A0832C7
:1007C0001160354A70321268C0F30B031A43324B82
:1007D00070331A60704735494439086070473349AF
:1007E000403908607047364908607047014600206C
:1007F000294A8C32106820F01F004A1E1043264AF6
:100800008C321060704701460020234A8C321068F9
:1008100020F4F8504A1E40EA02201F4A8C32106031
:100820007047014600201C4A8C32106820F44010AA
:1008300008431060704701460020174A8C32106848
:1008400020F4400008431060704701460020124A1F
:100850008C32106820F4403008431060704719490A
:100860000860704739B10C4A3032126802430A4BB3
:1008700030331A6006E0084A303212688243064B71
:1008800030331A607047F9B1034A343212680243B8
:10089000014B34331A601CE000380240FFFFF6EAD7
:1008A000103000240030002000004742800E4742F4
:1008B0000024F40000127A0014000020FFFCFF0F57
:1008C0005C014742E0114742854A12688243844BEB
:1008D0001A60704739B1824A121D12680243804B78
:1008E0001B1D1A6006E07E4A121D126882437C4B73
:1008F0001B1D1A60704739B1794A0C3212680243E5
:10090000774B0C331A6006E0754A0C32126882434A
:10091000734B0C331A60704739B1714A1032126848
:1009200002436F4B10331A6006E06D4A10321268B2
:1009300082436B4B10331A60704739B1684A243ACE
:1009400012680243664B243B1A6006E0644A243A6C
:1009500012688243624B243B1A60704739B1604A87
:10096000203A126802435E4B203B1A6006E05C4A64
:10097000203A126882435A4B203B1A60704739B1C3
:10098000574A1C3A12680243554B1C3B1A6006E05A
:10099000534A1C3A12688243514B1C3B1A60704701
:1009A00039B14F4A143A126802434D4B143B1A6056
:1009B00006E04B4A143A12688243494B143B1A60D2
:1009C000704739B1464A103A12680243444B103B13
:1009D0001A6006E0424A103A12688243404B103BCC
:1009E0001A60704739B13E4A1C32126802433C4BD0
:1009F0001C331A6006E03A4A1C3212688243384BB4
:100A00001C331A60704739B1354A203212680243EC
:100A1000334B20331A6006E0314A20321268824399
:100A20002F4B20331A60704739B12D4A2432126897
:100A300002432B4B24331A6006E0294A2432126801
:100A40008243274B24331A60704739B1244A2C3231
:100A500012680243224B2C331A6006E0204A2C32E3
:100A6000126882431E4B2C331A60704739B11C4AFE
:100A70003032126802431A4B30331A6006E0184ACB
:100A8000303212688243164B30331A60704739B1E6
:100A9000134A273A12780243114B273B1A7006E09B
:100AA0000F4A273A127882430D4B273B1A70704742
:100AB0000B484030006840F08070094940310860C0
:100AC000704701460020064A283A12680A400AB1D7
:100AD000012000E000207047014926390870704766
:100AE00034380240016821F00101016000210160F9
:100AF00041608160C160016121214161DB4988421F
:100B000004D13D21D94A103A91608CE0D74918317F
:100B1000884205D14FF47461D44A103A916082E062
:100B2000D2493031884205D14FF47411CF4A103A7E
:100B3000916078E0CD494831884205D14FF0746129
:100B4000CA4A103A91606EE0C8496031884204D1C7
:100B5000C749C64A103AD16065E0C4497831884235
:100B600004D1C449C14A103AD1605CE0BF49903118
:100B7000884204D1C049BD4A103AD16053E0BB4914
:100B8000A831884205D14FF03D51B84A103AD160A2
:100B900049E0BA49884204D13D21B84A083A116077
:100BA00041E0B6491831884205D14FF47461B34A27
:100BB000083A116037E0B1493031884205D14FF42D
:100BC0007411AE4A083A11602DE0AC4948318842B0
:100BD00005D14FF07461A94A083A116023E0A74992
:100BE0006031884204D1A249A44A121F11601AE060
:100BF000A2497831884204D19E49A04A121F11604F
:100C000011E09E499031884204D19B499B4A121FB2
:100C1000116008E09949A831884204D14FF03D5154
:100C2000964A121F1160704710B500220268944B5B
:100C30001A40CC680B6823434C6923438C692343D7
:100C4000CC6923430C6A23434C6A23438C6A2343B5
:100C50004C6B23438C6B23431A430260426922F09E
:100C60000702D1E90B3423431A4342610B69436005
:100C70004B6883608B68C36010BD002101604160D8
:100C80008160C160016141618161C1610162416254
:100C90008162C162016341638163704721B102686F
:100CA00042F00102026003E0026822F001020260E9
:100CB000704721B1026842F40042026003E002681A
:100CC00022F400420260704721B1026842F0200223
:100CD000026003E0026822F0200202607047416077
:100CE00070470146486880B2704722B1036843F4F8
:100CF0000023036003E0036823F400230360016121
:100D0000704721B1026842F48022026003E0026869
:100D100022F48022026070470AB1016100E0C160E4
:100D20007047014600200A6802F400220AB101203F
:100D300000E000207047014600200A6802F001022E
:100D40000AB1012000E000207047014600204A69F6
:100D500002F03800704730B503460A4600200024F0
:100D6000464DAB4202D24149103901E043491039A6
:100D700002F000550DB14C6800E00C68414D2C406C
:100D800004EA02050DB1012000E0002030BD02465A
:100D90003A4B9A4202D23548103801E037481038B1
:100DA00001F000531BB1374B0B40C36002E0354BE1
:100DB0000B408360704710B501F080034BB122B146
:100DC000436943F08003436103E0436923F08003F8
:100DD000436180290BD02AB1036801F01E0423432C
:100DE000036004E0036801F01E04A343036010BD28
:100DF00070B50246002000240025204EB24202D2E7
:100E00001A4B103B01E01D4B103B1F4E0E4036B1FC
:100E10001E2606EAD124166806EA040502E0566991
:100E200006F0800501F000560EB15C6800E01C6819
:100E3000144E344004EA010616B10DB1012000E061
:100E4000002070BD02460D4B9A4202D2074810386E
:100E500001E00A48103801F000531BB1094B0B4068
:100E6000C36002E0074B0B40836070471060024094
:100E70003D000020400F002000003D201064024093
:100E80003F801CF07D0F7D0F3C0F3C0F10B50446DA
:100E90009848844208D101210846FFF74EFD002101
:100EA0000120FFF74AFD76E09348844208D10121F2
:100EB0000220FFF742FD00210220FFF73EFD6AE01D
:100EC0008E48844208D101210420FFF736FD00211D
:100ED0000420FFF732FD5EE08948844208D10121F9
:100EE0000820FFF72AFD00210820FFF726FD52E029
:100EF0008448844208D101211020FFF71EFD002103
:100F00001020FFF71AFD46E07F48844208D10121F6
:100F10002020FFF712FD00212020FFF70EFD3AE010
:100F20007A48844208D101214020FFF706FD0021C4
:100F30004020FFF702FD2EE07548844208D10121D0
:100F40008020FFF7FAFC00218020FFF7F6FC22E06A
:100F50007048844208D101218015FFF7EEFC002182
:100F6000A015FFF7EAFC16E06B48844208D1012186
:100F70004015FFF7E2FC00216015FFF7DEFC0AE0F8
:100F80006648844207D101210015FFF7D6FC0021F5
:100F90002015FFF7D2FC10BDF0B50A460021002352
:100FA000002400BF3DE0012505FA01F3156805EABC
:100FB00003049C4234D105684F000326BE40B5436C
:100FC000056015794E00B540066835430560157912
:100FD000012D02D01579022D16D185684F00032608
:100FE000BE40B543856055794E00B54086683543AF
:100FF0008560456801268E40B54345604568967911
:101000008E40B6B235434560C5684F000326BE40EA
:10101000B543C560D5794E00B540C6683543C56057
:10102000491C1029BFD3F0BD4FF6FF7101600021AC
:10103000017141718171C171704708B54FF48032FF
:101040000092009A0A430092009AC261C161009A1C
:10105000C261C2690092C269009208BD02460020C6
:1010600013690B400BB1012000E0002070470146DE
:10107000086980B270470246002053690B400BB1EB
:10108000012000E0002070470146486980B27047A7
:1010900001837047418370470AB1018300E04183B7
:1010A00070474161704742694A4042617047F0B5FC
:1010B000002300244D07ED0E02FA05F3CE1000F1D7
:1010C000200555F826504E07F70E0F26BE40B543B3
:1010D000CF1000F1200646F82750CE1000F1200571
:1010E00055F8265045EA0304CE1000F1200545F8D6
:1010F0002640F0BD0000024000040240000802400B
:10110000000C02400010024000140240001802408F
:10111000001C02400020024000240240002802403F
:1011200010B50446FA48844208D101211020FFF787
:1011300048FC00211020FFF744FC57E0F5488442AA
:1011400009D101214804FFF72BFC00214FF40030A6
:10115000FFF726FC4AE0F048844209D101218804C7
:10116000FFF71EFC00214FF48020FFF719FC3DE043
:10117000EA48844209D10121C804FFF711FC00218B
:101180004FF40020FFF70CFC30E0E548844209D121
:1011900001210805FFF704FC00214FF48010FFF740
:1011A000FFFB23E0DF48844208D101212020FFF724
:1011B00008FC00212020FFF704FC17E0DA488442F5
:1011C00009D101218807FFF7EBFB00214FF0804098
:1011D000FFF7E6FB0AE0D548844207D1012140052C
:1011E000FFF7DEFB00216005FFF7DAFB10BD2DE9FC
:1011F000FF4705460E460024A14600BFA046B08921
:1012000000B100BF2C8A24F44054F08804432C829F
:10121000AC8941F20C608443B088318908437189FC
:1012200008430443AC81AC8A24F44074B08904437D
:10123000AC826846FFF745FAB548854202D0B94806
:10124000854202D1DDF80C9001E0DDF80890A88914
:1012500000F4004040B109EBC90000EB091031680F
:101260004900B0FBF1F707E009EBC90000EB0910FA
:1012700031688900B0FBF1F76420B7FBF0F004019E
:101280002009642101FB1078A88900F4004040B1D6
:10129000322000EBC800B0FBF1F000F0070004437F
:1012A00008E0322000EB08106421B0FBF1F000F000
:1012B0000F0004432C81BDE8FF874FF416510160F5
:1012C00000218180C18001810C2141810021818127
:1012D000704710B502460020108A20F470600B8819
:1012E0004C8823438C882343CC88234318431082A3
:1012F00010BD0021018041808180C180704721B1F3
:10130000828942F40052828104E082894DF6FF73A3
:101310001A4082817047028B02F47F420283028B63
:101320000A430283704721B1828942F400428281DC
:1013300003E08289C2F30E028281704721B1828A62
:1013400042F40062828204E0828A4FF2FF731A4004
:1013500082827047C1F30802828070470146888804
:10136000C0F308007047028A4FF6F0731A400282F9
:10137000028A0A430282704721B1828942F0020246
:10138000828104E082894FF6FD731A4082817047A2
:1013900082894FF2FF731A40828182890A438281D7
:1013A0007047028A4FF6DF731A400282028A0A43AC
:1013B0000282704721B1028A42F48042028204E034
:1013C000028A4BF6FF731A4002827047818941F00E
:1013D00001018181704721B1828A42F00802828234
:1013E00004E0828A4FF6F7731A4082827047028BBC
:1013F000D2B20283028B42EA01220283704721B1FA
:10140000828A42F02002828204E0828A4FF6DF73F1
:101410001A408282704721B1828A42F01002828291
:1014200004E0828A4FF6EF731A4082827047828A04
:101430004FF6FB731A408282828A0A438282704787
:1014400021B1828A42F00202828204E0828A4FF64F
:10145000FD731A40828270471AB1838A0B438382DC
:1014600002E0838A8B4383827047F0B503460024F1
:1014700000260025002040F66A17B94200D100BFBF
:101480001846C1F3421401F01F06012707FA06F5BA
:10149000012C01D10C3004E0022C01D1103000E00D
:1014A00014301AB107682F43076002E00768AF43A2
:1014B0000760F0BD02460020B1F5007F00D100BFFB
:1014C00013880B400BB1012000E00020704701F4AD
:1014D0000072B2F5007F00D100BFCA43028070479E
:1014E00070B50246002400230025002040F66A164D
:1014F000B14200D100BFC1F3421501F01F03012624
:1015000006FA03F3012D13D19689334017E000004A
:10151000001001400044004000480040004C0040E2
:10152000005000400014014000780040007C004062
:10153000022D02D1168A334001E0968A33400C1204
:10154000012606FA04F41688344013B10CB10120C8
:1015500000E0002070BD10B50022002340F66A14A0
:10156000A14200D100BF0A1201249440A3B2DC437F
:10157000048010BD10B50446FE48844208D1012104
:101580000846FFF71EFA00210120FFF71AFA9DE036
:10159000B4F1804F08D101210846FFF701FA00217C
:1015A0000120FFF7FDF991E0F348844208D10121C1
:1015B0000220FFF7F5F900210220FFF7F1F985E09D
:1015C000EE48844208D101210420FFF7E9F9002107
:1015D0000420FFF7E5F979E0E948844208D10121C8
:1015E0000820FFF7DDF900210820FFF7D9F96DE0A9
:1015F000E448844208D101211020FFF7D1F90021ED
:101600001020FFF7CDF961E0DF48844208D10121C5
:101610002020FFF7C5F900212020FFF7C1F955E090
:10162000DA48844208D101210220FFF7CAF90021DB
:101630000220FFF7C6F949E0D548844209D10121CB
:101640000804FFF7BEF900214FF48030FFF7B9F925
:101650003CE0D048844209D101214804FFF7B1F9A8
:1016600000214FF40030FFF7ACF92FE0CA48844264
:1016700009D101218804FFF7A4F900214FF480204B
:10168000FFF79FF922E0C548844208D1012140209C
:10169000FFF786F900214020FFF782F916E0C048E5
:1016A000844208D101218020FFF77AF900218020AF
:1016B000FFF776F90AE0BB48844207D10121801583
:1016C000FFF76EF90021A015FFF76AF910BD00229F
:1016D0000288A84B98420ED0AC4B98420BD0B0F188
:1016E000804F08D0A44B984205D0A44B984202D01A
:1016F000A34B984204D14FF68F731A404B881A437C
:10170000A04B984207D0A04B984204D04FF6FF431D
:101710001A400B891A4302804B68C3620B88038509
:10172000944B984202D0994B984201D18B7A038610
:101730000123838270474FF0FF3141600021018017
:1017400001814180817270470185828270470A461B
:10175000002101884FF68F731940114301807047B3
:1017600041627047C16270470146486A704701464E
:10177000088D704721B1028842F00202028004E025
:1017800002884FF6FD731A400280704721B102882B
:1017900042F00402028004E002884FF6FB731A4014
:1017A0000280704721B1028842F08002028004E08A
:1017B00002884FF67F731A400280704702884FF606
:1017C000F7731A40028002880A4302807047028839
:1017D0004FF6FF431A40028002880A430280704796
:1017E00021B1028842F00102028004E002884FF633
:1017F000FE731A400280704770B500240022002357
:10180000058C4FF6FE7635400584028C8388048B68
:101810004FF68F752C40B51E2C400D882C43751E3D
:101820002A408D892A434D882A43524DA84202D02E
:10183000564DA84213D14FF6F7752A40CD892A4359
:101840004FF6FB752A408D882A434FF6FF652B40E3
:101850004FF6FF552B400D8A2B434D8A2B43838037
:1018600004838D684563028470BD70B50024002236
:101870000023058C4FF6EF7635400584028C838873
:10188000048B48F6FF752C404FF6FF452C400D8821
:101890004FF6FF7606EA05252C434FF6DF752A4002
:1018A0008D8906EA05152A434D8806EA05152A435F
:1018B000304DA84202D0354DA8421DD14FF67F755C
:1018C0002A40CD894FF6FF7606EA05152A434FF6E2
:1018D000BF752A408D8806EA05152A434FF6FF3565
:1018E0002B404FF2FF752B400D8A06EA85052B43EE
:1018F0004D8A06EA85052B43838004838D688563C2
:10190000028470BD70B5002400220023058C4FF6C0
:10191000FF6635400584028C8388848B4FF68F7573
:101920002C404FF6FC752C400D882C434FF6FF558C
:101930002A408D894FF6FF7606EA05252A434D8811
:1019400006EA05252A430B4DA84202D00F4DA842B6
:1019500038D14FF2FF752A40CD894FF6FF7606EA5F
:1019600005252A434FF6FF352A408D8806EA0525CE
:101970002A4319E000000140000400400008004034
:10198000000C004000100040001400400004014022
:101990000040014000440140004801400018004060
:1019A000001C0040002000404EF6FF752B404DF615
:1019B000FF752B400D8A06EA05152B434D8A06EA72
:1019C00005152B43838084838D68C563028470BDB5
:1019D00070B5002200230024058C4EF6FF763540BA
:1019E0000584038C8488828B48F6FF752A404FF665
:1019F000FF452A400D884FF6FF7606EA05252A4363
:101A00004DF6FF752B408D8906EA05352B434D8831
:101A100006EA05352B43FE4DA84202D0FD4DA842F3
:101A200008D14BF6FF752C400D8A4FF6FF7606EA7B
:101A300085152C43848082838D680564038470BD82
:101A4000002101804180818081608181C18101828A
:101A50004182704770B503460020002418461830B4
:101A600001258D40ACB21D8CA5431D8409B1082908
:101A70000AD100EB610005684FF68F7635400560AE
:101A80000568154305600FE00D1FC5F34E0528449A
:101A9000056848F6FF763540056005684FF6FF7625
:101AA00006EA02263543056070BD416370478163D5
:101AB0007047C1637047016470470A460021018B7B
:101AC0004FF68F7319401143018370470A46002176
:101AD000018B48F6FF7319404FF6FF7303EA0223A8
:101AE0001943018370470A460021818B4FF68F739B
:101AF00019401143818370470A460021818B48F6C3
:101B0000FF7319404FF6FF7303EA022319438183E1
:101B100070470A460021018B4FF6F77319401143B5
:101B2000018370470A460021018B4FF2FF73194071
:101B30004FF6FF7303EA02231943018370470A46F5
:101B40000021818B4FF6F773194011438183704751
:101B50000A460021818B4FF2FF7319404FF6FF7345
:101B600003EA02231943818370470A460021018B4F
:101B70004FF6FB7319401143018370470A46002159
:101B8000018B4FF6FF3319404FF6FF7303EA022330
:101B90001943018370470A460021818B4FF6FB737E
:101BA00019401143818370470A460021818B4FF60B
:101BB000FF3319404FF6FF7303EA02231943818371
:101BC00070470A460021018B4FF67F73194011437D
:101BD000018370470A460021018BC1F30E014FF6C5
:101BE000FF7303EA02231943018370470A46002169
:101BF000818B4FF67F7319401143818370470A46EA
:101C00000021818BC1F30E014FF6FF7303EA02231B
:101C10001943818370470A460021018C4FF6FD73FA
:101C200019401143018470470A460021018C4FF688
:101C3000F77319401143018470470A460021018C53
:101C40004FF6DF7319404FF6FF7303EA021319438F
:101C5000018470470A460021018C4FF67F731940BA
:101C60004FF6FF7303EA02131943018470470A46D3
:101C70000021018C4FF6FF5319404FF6FF7303EA22
:101C800002231943018470470A460021018C4FF258
:101C9000FF7319404FF6FF7303EA022319430184CF
:101CA00070470A460021018C4DF6FF7319404FF62C
:101CB000FF7303EA023319430184704730B50023F0
:101CC00001248C40A3B2048C9C430484048C02FA4B
:101CD00001F5ADB22C43048430BD30B5002304249B
:101CE0008C40A3B2048C9C430484048C02FA01F55A
:101CF000ADB22C43048430BD828B4FF2FF331A40C7
:101D00008283828B4FF6FF7303EA01231A43828397
:101D10007047F0B50C461546002100220026078CBE
:101D20004EF6FF7C07EA0C070784818B028C4FF686
:101D3000FF7707EA043640F6FF4739404FF6FF7752
:101D400007EA052739434FF6FF7707EA0337394398
:101D500045F6FF773A4046F480573A438183028440
:101D6000F0BD828B4FF6F3731A408283828B0A4355
:101D700082837047F0B50C461546002100220026EC
:101D8000078C4FF6FF6C07EA0C070784818B028CE7
:101D90004FF6FF7707EA04264FF60C7739404FF6E7
:101DA000FF7707EA03172F4339434FF2FF573A40B3
:101DB00046F480773A4381830284F0BD028B4FF270
:101DC000FF331A400283028B4FF6FF7303EA0123AD
:101DD0001A4302837047F0B50C46154600210022D5
:101DE0000026078C4FF6EF7C07EA0C070784018B6F
:101DF000028C4FF6FF7707EA041640F6FF4739409A
:101E00004FF6FF7707EA033739434FF6FF7703E0D2
:101E1000000001400004014007EA052739434FF65E
:101E20005F773A4046F010073A4301830284F0BDE1
:101E3000028B4FF6F3731A400283028B0A4302832C
:101E40007047F0B50C46154600210022068C4FF66F
:101E5000FE773E400684018B028C4FF60C763140B3
:101E60007E1C06EA03162E4331434FF6F5763240C8
:101E700044F00106324301830284F0BD70B505468B
:101E80000C46208850B92389A28861882846FFF72C
:101E9000D8FFE1882846FFF7CBFF25E020880428FB
:101EA0000AD12389A28861882846FFF794FFE18838
:101EB0002846FFF783FF17E0208808280AD12389E6
:101EC000A28861882846FFF755FFE1882846FFF77A
:101ED00048FF09E02389A28861882846FFF719FF97
:101EE000E1882846FFF708FF70BD0021018041808E
:101EF000012181800021C180018170472DE9F041DD
:101F000005460C4600260127608808B9022600E035
:101F10000026A088012801D1022700E0012720889F
:101F2000A0B92389A28861882846FFF78AFFE18843
:101F30002846FFF77DFF23893A4631462846FFF7BA
:101F40004AFFE1882846FFF739FF13E02389A2887A
:101F500061882846FFF73FFFE1882846FFF72EFFFC
:101F600023893A4631462846FFF76BFFE188284629
:101F7000FFF75EFFBDE8F0810146486B7047014600
:101F8000886B70470146C86B70470146086C704704
:101F90000A884B881A438B881A43CB881A430B89CB
:101FA0001A434B891A438B891A43A0F8442070477F
:101FB0000021018041808180C18001814181818136
:101FC000704731B1B0F8442042F40042A0F84420F8
:101FD00005E0B0F84420C2F30E02A0F84420704798
:101FE00021B1828842F00402828004E082884FF6A8
:101FF000FB731A408280704721B1828842F001024F
:10200000828004E082884FF6FE731A408280704717
:102010001AB183890B43838102E083898B438381D7
:1020200070478182704702460020138A0B400BB133
:10203000012000E000207047CA430282704730B59B
:102040000246002000230024158A05EA0103958931
:1020500005EA010413B10CB1012000E0002030BDFD
:10206000CA430282704741EA0203A0F84830704731
:102070001AB183890B43838102E083898B43838177
:10208000704721B1828842F00802828004E0828891
:102090004FF6F7731A408280704701894FF6F87245
:1020A0001140018170470A46002101894FF68F7364
:1020B000194011430181704730B504460D46294649
:1020C0002046FFF7F0FF208940F00700208130BD57
:1020D0002DE9F04104460D4616461F46602D06D1F7
:1020E0003B46012231462046FFF775FE05E03B46A0
:1020F000012231462046FFF7A4FE29462046FFF77D
:10210000D2FF208940F007002081BDE8F08130B582
:102110000C4600210189C9B24FF6FF7505EA032577
:10212000154325432943018130BD2DE9F041054682
:102130000E4617469846002443463A4631462846FE
:10214000FFF7E5FF2C894FF6F870044044F00704D0
:102150004FF68F70044044F070042C81BDE8F0818C
:10216000F0B504460D4616461F463B463246294604
:102170002046FFF7CCFF208940F480402081F0BD4D
:1021800082884FF68F731A40828082880A43828049
:10219000704702894FF6F8731A40028102890A4398
:1021A0000281704702894FF67F731A4002810289CB
:1021B0000A4302817047F0B50C4615461E460021C1
:1021C000002200230189028B038C4FF6F8773940F7
:1021D00021434FF6FC473A4040F201173A434FF68D
:1021E000DD773B404FF6FF7707EA06172F433B4367
:1021F000018102830384F0BD21B1828842F0800214
:10220000828004E082884FF67F731A408280704794
:10221000A0F850107047000010B501210802FEF729
:10222000D0FB00214FF48070FEF7CBFB10BD30B522
:102230000246002000235068F84C20400D790C68BD
:1022400044EA0524204350609068F54C2040D1E9D1
:1022500003542C438D682C434D7944EA45042043B4
:102260009060D06A20F470000C7D641EE4B22343B9
:1022700040EA0350D06230BD00210160017141711C
:102280008160C16001610121017570470021E54A4B
:102290001168E54A1140D0E900231A4383681A43C4
:1022A000C3681A431143E14AC2F80413704700217E
:1022B000016041608160C160704721B1826842F075
:1022C0000102826003E0826822F0010282607047AE
:1022D0000A4600214168D64B1940114341607047BE
:1022E0004162826270470A460021416821F01F0165
:1022F00011434160704738B1CA49096841F400018F
:10230000CA4AC2F8041306E0C649096821F400016C
:10231000C64AC2F80413704738B1C249096841F48B
:102320008001C24AC2F8041306E0BE49096821F4DC
:102330008001BE4AC2F804137047F0B504460D464A
:1023400000200021092D11DDE068A5F10A0606EB49
:102350004607072606FA07F18843A5F10A0606EBA9
:10236000460603FA06F10843E0600CE0206905EB3D
:102370004507072606FA07F1884305EB450603FAE9
:1023800006F108432061072A0FDA606B561E06EB40
:1023900086071F2606FA07F18843561E06EB8606B7
:1023A00005FA06F10843606322E00D2A0FDA206B7C
:1023B000D61F06EB86071F2606FA07F18843D61FAD
:1023C00006EB860605FA06F10843206310E0E06A92
:1023D000A2F10D0606EB86071F2606FA07F18843D1
:1023E000A2F10D0606EB860605FA06F10843E06247
:1023F000F0BD816841F08041816070470146002056
:102400008A6802F080420AB1012000E00020704793
:1024100021B1826842F48062826003E0826822F423
:1024200080628260704721B1826842F0020282605D
:1024300003E0826822F002028260704710B50A460B
:1024400000210023416821F46041531E41EA4331D9
:10245000416010BD21B1426842F40062426003E075
:10246000426822F40062426070470146C86C80B244
:1024700070476C48001D0068704721B1826842F4C3
:102480008072826003E0826822F48072826070470A
:1024900021B1826842F40072826003E0826822F413
:1024A00000728260704738B15E49096841F400519A
:1024B0005E4AC2F8041306E05A49096821F4005143
:1024C0005A4AC2F804137047F0B504461546002076
:1024D00000220026092911DDE068A1F10A0707EBB7
:1024E000470C072707FA0CF29043A1F10A0707EB04
:1024F000470703FA07F21043E0600CE0206901EBA4
:10250000410C072707FA0CF2904301EB410703FA4D
:1025100007F210432061A06BC0F30156EF1C06F1D7
:10252000010CA7EB0C0707EB870C1F2707FA0CF22F
:102530009043EF1C06F1010CA7EB0C0707EB870794
:1025400001FA07F21043A063F0BD10B50A4600215E
:102550000023816B21F44011531E41EA0351816332
:1025600010BD08B5002300930090009B0B4400931E
:10257000009B1A6008BD0A460021816821F4702181
:102580001143816070470A460021816821F440119F
:10259000114381607047816841F480018160704718
:1025A000014600208A6802F480020AB1012000E09E
:1025B0000020704721B1426842F48062426003E02B
:1025C000426822F480624260704721B1426842F45E
:1025D0008052426003E0426822F4805242607047B9
:1025E00008B5024600200090009201F12800009BEF
:1025F000184400900098006880B208BD10B50B46E2
:102600000021D9B2012404FA01F11AB144680C4343
:10261000446002E044688C43446010BDFFFEFFFC50
:10262000FDF7FFC004230140E030FCFF0020014023
:10263000FFFD3FFF0246002013680B400BB1012055
:1026400000E000207047CA430260704770B5024640
:102650000020002300240B12556801268E4005EA55
:10266000060415681D4015B10CB1012000E00020E2
:1026700070BD00220A12D34303607047F0B50646CE
:10268000002300240025462041F20407BA4200DD61
:10269000F0BD612E03D1F94B1C1F251F04E0622EF3
:1026A00002D1F74B1C1F251FB1F5616F02DBA1F5AD
:1026B000616700E00F4639B2002902DA01F561676F
:1026C00000E00F4639B2002935DBB1F5167F32DA6A
:1026D000EC4F07EB810797ED000AC1F51677DFF89D
:1026E000A4C30CEB8707D7ED000A30EE201A00EEEA
:1026F000100AF8EE400A00EE102AB8EE400A40EE4A
:10270000010ABCEEE00A10EE107A1F60674607EB84
:10271000810797ED001A00EE100AF8EE400A00EE6D
:10272000102AB8EE400A40EE010ABCEEE00A10EEB4
:10273000107A27602860B1F5167F39DBB1F5966F06
:1027400036DAA1F5167739B2C1F51677DFF834C35A
:102750000CEB870797ED001A00EE100AF8EE400A1E
:1027600000EE102AB8EE400A40EE010ABCEEE00A84
:1027700010EE107A1F60674607EB810797ED000A9D
:10278000C1F516770CEB8707D7ED000A30EE201A5B
:1027900000EE100AF8EE400A00EE102AB8EE400AE9
:1027A00040EE010ABCEEE00A10EE107A27602860C5
:1027B000B1F5966F38DBB1F5E16F35DAA1F59667C3
:1027C00039B21860AF4F07EB810797ED000AC1F5EA
:1027D0001677DFF8B0C20CEB8707D7ED000A30EEB2
:1027E000201A00EE100AF8EE400A00EE102AB8EEA9
:1027F000400A40EE010ABCEEE00A10EE107A2760B3
:10280000674607EB810797ED001A00EE100AF8EE15
:10281000400A00EE102AB8EE400A40EE010ABCEE73
:10282000E00A10EE107A2F60B1F5E16F39DBB1F5F7
:10283000166F36DAA1F5E16739B21860C1F516777F
:10284000DFF840C20CEB870797ED001A00EE100A84
:10285000F8EE400A00EE102AB8EE400A40EE010AF7
:10286000BCEEE00A10EE107A2760674607EB81079E
:1028700097ED000AC1F516770CEB8707D7ED000A34
:1028800030EE201A00EE100AF8EE400A00EE102A90
:10289000B8EE400A40EE010ABCEEE00A10EE107AF3
:1028A0002F60B1F5166F39DB40F6B837B94235DA2B
:1028B000A1F5166739B2734F07EB810797ED001A40
:1028C00000EE100AF8EE400A00EE102AB8EE400AB8
:1028D00040EE010ABCEEE00A10EE107A1F602060A4
:1028E000684F07EB810797ED000AC1F51677DFF80F
:1028F00094C10CEB8707D7ED000A30EE201A00EEEA
:10290000100AF8EE400A00EE102AB8EE400A40EE37
:10291000010ABCEEE00A10EE107A2F6040F6B837DC
:10292000B94239DBB1F5616F36DAA1F6B83739B2A1
:10293000544F07EB810797ED000AC1F51677DFF8D2
:1029400044C10CEB8707D7ED000A30EE201A00EEE9
:10295000100AF8EE400A00EE102AB8EE400A40EEE7
:10296000010ABCEEE00A10EE107A1F602060C1F58B
:1029700016770CEB870797ED001A00EE100AF8EEB9
:10298000400A00EE102AB8EE400A40EE010ABCEE02
:10299000E00A10EE107A2F6000BF79E62DE9F041D1
:1029A00007460E4614460025612F02D140F2DC5541
:1029B00003E0622F01D14FF4967541F20400844286
:1029C00002DC4042844201DABDE8F081002C35DBB4
:1029D000062E32D2DFE806F0030B131B2129A2B228
:1029E00005F5E16001B23846FFF748FE25E0A2B2E6
:1029F00005F5166001B23846FFF740FE1DE0A2B2B1
:102A000005F6B83001B23846FFF738FE15E0A2B23D
:102A100029B23846FFF732FE0FE0A2B205F5167074
:102A200001B23846FFF72AFE07E0A2B205F596602C
:102A300001B23846FFF722FE00BF41E0062E3ED22B
:102A4000DFE806F0030A13222B34604282B229B277
:102A50003846FFF713FE32E0604282B205F5167089
:102A600001B23846FFF70AFE29E0604282B205F55E
:102A7000966001B23846FFF701FE20E03C000140BD
:102A80003C04014020010020604282B205F5E16073
:102A900001B23846FFF7F2FD11E0604282B205F55F
:102AA000166001B23846FFF7E9FD08E0604282B2E5
:102AB00005F6B83001B23846FFF7E0FD00BF00BFB1
:102AC00000BF81E770472DE9F0410646612E11D124
:102AD0000121FE48FEF7C2FA87000221FB48FEF7FB
:102AE000BDFA47EA40070421F848FEF7B7FA074362
:102AF000FDB215E0622E13D14FF40041F348FEF70A
:102B0000ADFA07464FF48061F148FEF7A7FA47EAAD
:102B100040070821EE48FEF7A1FA47EA8000C5B257
:102B2000072D11D2DFE805F010080C0A04060E008C
:102B3000002409E0012407E0022405E0032403E067
:102B4000042401E0052400BF00BF2046BDE8F08159
:102B500010B5E048406AB0F57A6F6FD9DE48B0F939
:102B60001820808901B26120FFF7ACFF0020DA490C
:102B700091F824104FF4167211FB02F1D64A91819C
:102B8000D64991ED000AF7EE000A30EE200A81EDF9
:102B9000000ADFEDD30AB4EEE00AF1EE10FA03DD2D
:102BA0009FEDD00A81ED000ACB4991F8231041B185
:102BB0000021C94A82F823109FEDCA0AC74981ED56
:102BC000000AC64991ED000A9FEDC71AC0EE010A3E
:102BD000C149B1F91A1000EE101AB8EEC00A20EE81
:102BE000800ABDEEC00A10EE101A08B2B0F5167FCA
:102BF00002DD4FF4167100E00146084610F5167F1D
:102C000001DABA4900E001460846B349B1F91A10A1
:102C1000002902DA00F5167100E0014608B2AE495B
:102C200089890144AC4A9181AC4991ED000ABDEE1D
:102C3000C00A10EE101A09B2118500BFA548406AFB
:102C4000B0F5C87F3FD2AA480088B0F57A7F24DA71
:102C5000A7480088401CA6490880A648B0F904008F
:102C6000A54909680844A4490860A248B0F90200CF
:102C700009680844A04908609D48008840F2E7318F
:102C800088420AD19C48006800F57A704FF4FA61D6
:102C9000B0FBF1F000B2974908809848006840F016
:102CA00080409749C1F8080196480088401C80B2CE
:102CB00094490880642806DB002008809248007848
:102CC000401C9149087001218248FFF7B5F910BDF9
:102CD00010B58E4804888E48008808B9012000E0AD
:102CE00000208B4908806120FFF7EDFE7A4981F8CA
:102CF000240004F00300012822D18448008820F039
:102D00000100824908800020824908707249488386
:102D1000C861814908800AE0002080497E4A128803
:102D200041F822007C480088401C7B4908807A4892
:102D300000880C28F0DB0020674981F8260020E19C
:102D400004F003000328FAD17048008820F0030043
:102D50006E4908800120604981F82300084690F8F8
:102D6000240091F82510401A012809D05A4890F8FB
:102D70002400594991F82510401A401D00285CD1C3
:102D8000554890F9260000283BDD63480088401C28
:102D900080B2614908800C2801DB002008804E4881
:102DA000C0695E495C4A128851F82210401A4A49AB
:102DB000C8615648243000685849574A128841F87B
:102DC00022004548C069544A128851F8221008442C
:102DD0004149C8614F480078401C40B24D490870D5
:102DE0000C2801DD0C2008704A4890F900004C497D
:102DF00048433949C969B0FBF1F000B2364948830C
:102E000017E000204349087033494883C8614249AC
:102E100008800AE0002141483F4A128840F8221009
:102E20003D480088401C3C4908803B4800880C28ED
:102E3000F0DB0120284981F82600274890F824007B
:102E4000254991F82510401A401C40B1224890F8BD
:102E50002400214991F82510401A052873D11E48F5
:102E600090F92600002870DA2B480088401C80B2B8
:102E7000294908800C2801DB002008801648C06919
:102E80002649254A128851F82210401A1249C86171
:102E90001E482430006821491F4A128841F8220048
:102EA0000D48C1691D481C4A128850F82200084488
:102EB0000949C86117480078401E40B2154908709A
:102EC00010F10C0F01DAF42008702BE00000024032
:102ED00000040240000001405800002024000020AF
:102EE0000000FA440000000085AB2643A8FDFFFF68
:102EF00028000020420000202C0000200821014072
:102F0000002001403000002040000020100C004054
:102F1000988240423400002032000020B00000209F
:102F2000404B4C00E24890F90000E2494843002140
:102F3000A1EB8010E049C969B0FBF1F0404200B25A
:102F4000DD49488319E01CE0FFE70020D8490870FC
:102F5000D9494883C861D94908800AE00020D84986
:102F6000D64A128841F82200D4480088401CD34930
:102F70000880D24800880C28F0DBFF20CE4981F879
:102F80002600CD4890F82400CB4981F8250010BDDB
:102F900010B5CC480068B0F57A6F07D9CA48B0F9C7
:102FA000182090F824106220FFF7F8FCC54800684C
:102FB000B0F5C87F30D2C5480088B0F57A7F24DAF2
:102FC000C2480088401CC1490880C148B0F90400CB
:102FD000C04909680844BF490860BD48B0F902000B
:102FE00009680844BB490860B848008840F2E731E6
:102FF00088420AD1B748006800F57A704FF4FA6148
:10300000B0FBF1F000B2B2490880B348006840F06C
:103010008040B249C1F808020121AA482438FFF7CC
:103020000BF810BD10B54FF08040048AAC48008802
:1030300008B9012000E00020A94908806220FFF7BC
:1030400042FDA14981F8240004F00300012823D1A6
:103050008007008A20F001004FF0804108820020A4
:10306000A049088098494883C8619F4908800AE0C0
:1030700000209E499C4A128841F822009A48008804
:10308000401C99490880984800880C28F0DB0020F3
:103090008D4981F82600FAE004F003000328FAD1F4
:1030A0004FF08040008A20F003004FF080410882FA
:1030B0000120854981F82300084690F8240091F802
:1030C0002510401A012809D07F4890F824007E4935
:1030D00091F82510401A401D00285CD17A4890F9DB
:1030E000260000283BDD80480088401C80B27E49D5
:1030F00008800C2801DB002008807348C0697B49E8
:10310000794A128851F82210401A6F49C8614FF06D
:103110008040406B7549744A128841F822006A4821
:10312000C069714A128851F8221008446649C86182
:103130006C480088401C00B26A4908800C2801DDF8
:103140000C2008806748B0F90000694948435E498F
:10315000C969B0FBF1F000B25B49488317E0002079
:103160006049088058494883C8615F4908800AE07F
:1031700000215E485C4A128840F822105A480088B4
:10318000401C59490880584800880C28F0DB012071
:103190004D4981F826004C4890F824004A4991F89E
:1031A0002510401A401C40B1474890F82400464979
:1031B00091F82510401A052863D1434890F926005C
:1031C000002842DA48480088401C80B246490880FE
:1031D0000C2801DB002008803B48C0694349424A73
:1031E000128851F82210401A3749C8614FF08040C8
:1031F000406B3E493C4A128841F822003248C1697E
:103200003A48394A128850F8220008442E49C861C9
:1032100034480088401E00B23249088010F10C0F7B
:1032200002DA6FF00B0008802E48B0F90000214947
:1032300048430021A1EB80102349C969B0FBF1F09C
:10324000404200B22049488317E000202549088009
:103250001D494883C861244908800AE000202349A9
:10326000214A128841F822001F480088401C1E494C
:1032700008801D4800880C28F0DBFF20124981F8E7
:103280002600114890F824000F4981F8250010BD50
:1032900010B50446622C09D1FFF715FC0A4981F8E4
:1032A0002400084690F8240081F8250010BD000095
:1032B000340000202D310100580000203200002091
:1032C000B0000020240401408400002036000020CB
:1032D0004A00002038000020082201400020014060
:1032E000948240423E0000203C000020E400002088
:1032F000404B4C0070477047704700BFFEE700BF6F
:10330000FEE700BFFEE700BFFEE700BFFEE700BF2D
:10331000FEE700BFFEE700BFFEE7000010B52DEDA1
:10332000068B002400BF1AE0204600F0CBFE41ECE3
:103330001A0B9FED5C0B53EC102B00F043FE41EC9D
:10334000190B00F0CCFE08EE100AB0EE480A00F0AF
:10335000BBFF564800EB840080ED000A641CB4F506
:10336000616FE1D3BDEC068B10BD2DED068B002403
:10337000FFF7D4FF00F03AFD00F056FD00F0A0FC8E
:1033800000F0A8F800F0E9F800F06AF900F0FCF9A4
:1033900000F0B3FA00F05BFD82E0454800780128B8
:1033A00033D10020424908704248C06C04B2B4F5E1
:1033B0007A6F01DD4FF47A64C4F5FA60400000B220
:1033C0003D4908830846B0F91800B0F5967F07DA42
:1033D0000846B0F9180010F5967F01DD002002E0E4
:1033E0003548B0F91800344908830846008B40423C
:1033F00000B2324908833248008888B900202E493B
:1034000008832E49088300BFFEE729480078012879
:1034100006DD0020284908832849088300BFFEE70D
:103420002849B1F90210274AB2F90020881A00F0A1
:1034300038FE41EC190B9FED240B53EC102B00F0E0
:103440004FFD41EC180B00F04AFE0AEE100A1D4930
:10345000B1F900101B4AB2F90420881A00F021FECD
:1034600041EC190B9FED180B53EC102B00F038FDBD
:1034700041EC180B00F033FE0AEE900A0E4890F86B
:103480002400134908800C48008D48800A48408B6E
:1034900088800948808900B2C88000F074FC00BFB1
:1034A0007BE70000DFE00B93A9E7814020010020CB
:1034B000400000200020014058000020840000202F
:1034C00020824142420000200000000000C8E93F85
:1034D0001401002000B58DB001210420FDF7C2F9D0
:1034E00001210802FDF718FA20200B9003208DF827
:1034F00030008DF8310001208DF8320000208DF869
:1035000033000BA99848FDF747FD00200190029079
:103510000390049001A8FEF7B9FE002005908DF8F5
:10352000180001208DF81900002007900990012053
:103530008DF8280005A98D48FEF779FE00230122A9
:103540000F218A48FEF7F9FE01218848FEF7B5FEF3
:103550008648FEF74EFF0DB000BD00B59BB00121BF
:103560000846FDF77FF901214802FDF7D5F9012151
:103570008805FDF777F93020199003208DF8680051
:103580008DF8690001208DF86A0000208DF86B002D
:1035900019A97748FDF700FD4FF0007000907548BD
:1035A00001907548029000200390022004900020B2
:1035B00005904FF4806006904000079080000890CE
:1035C0004011099040020A9000200B9001200C90BD
:1035D00000200D900E9069466848FDF725FB0121FB
:1035E0006648FDF75BFB00200F9010901190129041
:1035F0000FA8FEF74BFE0020139001208DF850001D
:1036000000208DF851001590179002208DF8600071
:1036100013A958484C38FEF70AFE00230122052161
:1036200054484C38FEF789FE0023022204215148F9
:103630004C38FEF782FE01214E484C38FEF728FF39
:1036400001214C484C38FEF718FF012149484C38FD
:10365000FEF733FE47484C38FEF7CBFE1BB000BDEB
:1036600000B59BB001210420FDF7FCF80121880280
:10367000FDF752F901218805FDF7F4F803201990B0
:103680008DF868008DF8690001208DF86A0000202F
:103690008DF86B0019A93448FDF77EFC4FF080606F
:1036A0000090374801903748029000200390022094
:1036B0000490002005904FF4806006904000079031
:1036C000800008904011099040020A9000200B9061
:1036D00001200C9000200D900E906946274830384C
:1036E000FDF7A2FA012125483038FDF7D7FA00206E
:1036F0000F901090119012900FA8FEF7C7FD0020B8
:10370000139001208DF8500000208DF85100159085
:10371000179002208DF8600013A919484C38FEF765
:1037200086FD002302220B2115484C38FEF705FECA
:10373000002301220A2112484C38FEF7FEFD012128
:103740000F484C38FEF7A4FE01210D484C38FEF717
:1037500094FE01210A484C38FEF7AFFD08484C386A
:10376000FEF747FE1BB000BD0008024000200140EC
:10377000000002404C21014044000020406402400F
:103780004C2201404C000020F0B58FB001211020E8
:10379000FDF768F802208DF8380000208DF83A0017
:1037A0008DF83B0003208DF839004FF47C500D90CC
:1037B0000DA9FE48FDF7F0FB01220821FB48FDF7AB
:1037C00076FC01220921F948FDF771FC01220A214A
:1037D000F648FDF76CFC01220B21F448FDF767FC6D
:1037E00001220C21F148FDF762FC01220D21EF4876
:1037F000FDF75DFC01210846FDF78EF841F26804F3
:103800000025002600270B940020ADF82800ADF815
:1038100030006020ADF82A0000208DF832000AA99F
:10382000E348FDF754FF7020ADF814000220ADF816
:1038300020000120ADF816000420ADF81800082083
:10384000ADF822004001ADF824004000ADF826009C
:10385000079505A9D648FDF7CFFF079605A9D448D7
:10386000FEF703F8079705A9D148FEF74BF84FF488
:103870000060ADF804004010ADF806008010ADF80F
:1038800008006420ADF80A000020ADF80C00ADF887
:103890000E004FF48040ADF8100001A9C448FEF7B7
:1038A00077FB0121C248FEF7C7FB01221146C04841
:1038B000FEF7AEFB0121BE48FDF792FF0121BC4897
:1038C000FEF77FFB01211020FCF7CCFF80200B903E
:1038D00001208DF8300000208DF8320002208DF894
:1038E000310000208DF833000BA9B048FDF754FBE0
:1038F0000120B04908800FB0F0BD1CB50121084679
:10390000FCF7B0FF01210820FCF7F5FF02208DF83D
:10391000040001208DF806008DF8070000208DF8C6
:103920000500072000906946A348FDF735FB0222F9
:103930000021A148FDF7BBFB022201219E48FDF7B3
:10394000B6FB022211469C48FDF7B1FB53209B4970
:1039500008809B48091D0860442098492039088048
:103960000320091D0880002094491439088040F282
:103970000330091D08800320091D088040F2111042
:10398000091D0880D0208D49243908800120091F95
:1039900008801CBD1CB501210846FCF763FF01210E
:1039A0000220FCF75FFF01210846FCF7A4FF02207C
:1039B0008DF8040001208DF806008DF80700002026
:1039C0008DF805004FF40040009069467A48FDF7F5
:1039D000E3FA4FF48160009069467A48FDF7DCFA1B
:1039E00001220F217448FDF762FB01220321754873
:1039F000FDF75DFB01220A217248FDF758FB5320B9
:103A00004FF0804108856E48C86244200881032039
:103A100088810020888240F2033008830320888355
:103A200040F211100884D0208880012008801CBD3D
:103A3000F0B58FB001210846FCF714FF01210220E8
:103A4000FCF710FF01210420FCF70CFF03220721E3
:103A50005948FDF72CFB032200215A48FDF727FBAC
:103A6000032201215748FDF722FB03220621564875
:103A7000FDF71DFB032207215348FDF718FB032226
:103A800008215148FDF713FB02208DF83800002073
:103A90008DF83A008DF83B0003208DF83900802026
:103AA0000D900DA94448FDF777FA03200D900DA95C
:103AB0004448FDF771FA4FF4E0700D900DA94248AB
:103AC000FDF76AFA01210220FCF726FF41F26804A3
:103AD000204604EBD0714D1004EBD0714E1004EB76
:103AE000D0714F100B940020ADF82800ADF83000D5
:103AF0006020ADF82A0000208DF832000AA9334872
:103B0000FDF7E5FD7020ADF814000220ADF82000AF
:103B10000120ADF816000420ADF818000820ADF81B
:103B200022004001ADF824004000ADF826000795C2
:103B300005A92648FDF760FE079605A92348FDF76D
:103B400094FE079705A92148FDF7DCFE4FF40060BD
:103B5000ADF804004010ADF806008010ADF8080084
:103B60006420ADF80A000020ADF80C00ADF80E009E
:103B70004FF48040ADF8100001A91448FEF708FA90
:103B800001211248FEF758FA012211460F48FEF7AC
:103B90003FFA01210D48FDF723FE01210B48FEF7F6
:103BA00010FA01210420FCF75DFE11E00010024034
:103BB000000001409C02424200000240280C0040EC
:103BC000A0860100000402400008024000040140F9
:103BD0004FF400700B9001208DF8300000208DF81C
:103BE000320002208DF8310000208DF833000BA93F
:103BF0003048FDF7D1F901202F4908800FB0F0BD02
:103C0000F0B58DB000270024002500260020ADF877
:103C10002800ADF82A000B97ADF830008DF832007F
:103C20000AA92648FDF753FD3020ADF81400002006
:103C3000ADF820000120ADF8160007940420ADF87F
:103C400018000020ADF82200ADF82400ADF82600E1
:103C500005A91A48FDF7D0FD079505A91748FDF7F6
:103C600004FE079605A91548FDF74CFE4FF40060C9
:103C7000ADF804004010ADF806008010ADF8080063
:103C80009420ADF80A000020ADF80C00ADF80E004D
:103C90004FF48040ADF8100001A90848FEF778F90C
:103CA00001210648FDF79CFD01210448FEF789F932
:103CB0000DB0F0BD00080240A402414200000140E6
:103CC00000B587B001210846FCF7CCFD012110208A
:103CD000FCF722FE072209214148FDF7E8F90722F7
:103CE0000A213F48FDF7E3F94FF4C0600590022038
:103CF0008DF8180000208DF81A0001208DF81B00A7
:103D000002208DF8190005A93548FDF745F94FF453
:103D1000E13001900020ADF80800ADF80A00ADF8E0
:103D20000C00ADF810000C20ADF80E0001A92D48D4
:103D3000FDF75DFA01212B48FDF7E1FA4021294802
:103D4000FDF7C5FB07B000BD30B502460B464FF688
:103D5000FF70002114E032F811504540A8B2002451
:103D60000AE000F0010525B14AF2010585EA60008C
:103D700000E04010651CECB2102CF2DB4D1CE9B2E7
:103D80009942E8DB30BD10B504211748FFF7DCFF8E
:103D900000B21549088100241EE000BF80211148AF
:103DA000FDF788FB0028F9D00F4830F8140081B2E5
:103DB0000C48FDF7CFFA00BF80210A48FDF77AFBD7
:103DC0000028F9D0084830F91400C0F30F21054845
:103DD000FDF7C0FA601CC4B2052CDEDB10BD00008C
:103DE0000000024000100140140100201CB5012118
:103DF0000220FCF737FD6020009001208DF80400C0
:103E000000208DF8060002208DF8050000208DF8B6
:103E1000070069462E48FDF7BFF801202D490880AC
:103E20002D49A1F898021CBD1CB501210820FCF702
:103E300019FD4FF47060009000208DF804000120FF
:103E40008DF8070069462548FDF7A6F81CBD08B5A2
:103E500000214FF00060FCF7F5FA4FF4A060FCF78A
:103E6000B7FA19208DF8000001208DF8030000201A
:103E70008DF801008DF802006846FCF7AEFA32209A
:103E80008DF8000001208DF801008DF802008DF8FA
:103E900003006846FCF7A1FA2C208DF800000020F2
:103EA0008DF801008DF8020001208DF803006846AE
:103EB000FCF793FA1C208DF8000001208DF801001A
:103EC0008DF802008DF803006846FCF786FA08BDFD
:103ED000000402409482404200804042000C0240B4
:103EE0002DE9FE4F81EA030404F0004421F0004173
:103EF00000944FF0000B23F0004350EA01045ED021
:103F000052EA03045BD0C3F30A54C1F30A552C44AC
:103F1000A4F2F3340194A0FB0254C1F3130141F461
:103F20008011C3F3130343F4801301FB024400FB2D
:103F3000034E840A970A44EA815447EA8357A4FB54
:103F4000076802958D0A05FB07854FEA932C04FB51
:103F50000C542705029D4FEA065847EA1637B5EB81
:103F600008056EEB070C870E920E47EA811742EAAE
:103F70008312A7FB0201B6EB0B0164EB00042B0DCF
:103F800043EA0C335E1844EB1C50DA465146E7FB1B
:103F90000201C5F313044FEA0B3343EA14534FEA0B
:103FA0000432019C43EA0603A4F10C040294009C31
:103FB000CDE900B400F0F5F803B0BDE8F08F0020C3
:103FC0000146F9E72DE9F04D81EA030404F0004BC6
:103FD00021F0004514464FF0000A23F0004150EA5A
:103FE000050220D054EA01021DD0C5F30A5702464B
:103FF000C5F31303C1F31300C1F30A5640F480154F
:1040000043F48013A7EB0608101BD64608F2FD38D0
:1040100073EB050002D308F1010801E092185B413F
:10402000B8F1000F03DA00200146BDE8F08D002052
:104030004FF48011064684460EE0171B73EB05070C
:1040400005D3121B63EB050306434CEA010C490838
:104050004FEA300092185B4150EA0107EDD152EA75
:10406000030012D082EA040083EA0501084305D068
:10407000101BAB4106D20122002306E000224FF0C4
:10408000004302E06FF0010253101AEB06004CEB04
:10409000085110EB0A0041EB0B01BDE8F04D00F0B8
:1040A00071B80EB5C10F80EAE0700844CA0700215C
:1040B00040F233438DE80E000A460B4600F071F8DB
:1040C00003B000BD0EB540F2334102910021CDE9AD
:1040D00000110A460B4600F064F803B000BD01F081
:1040E000004330B421F0004150EA010206D00A0D2D
:1040F000A2F56072C1F31301002A02DC30BC00207B
:104100007047440F44EAC104C100E01830BC00EB22
:10411000C250AFF300800029A8BF7047401C49007F
:1041200008BF20F00100704710B4B0FA80FC00FA1C
:104130000CF050EA010404BF10BC704749B1CCF147
:10414000200421FA04F411FA0CF118BF01212143D3
:104150000843A3EB0C01CB1D4FEA00614FEA10208E
:1041600042BF002010BC704700EBC3501044002930
:10417000A4BF10BC7047401C490008BF20F00100DC
:1041800010BC704710B5141E73F1000408DA401C0F
:1041900041F1000192185B411A4301D120F0010066
:1041A00010BD2DE9F04D92469B4611B1B1FA81F256
:1041B00002E0B0FA80F22032904600F053F8044654
:1041C0000F4640EA0A0041EA0B0153465A460843AB
:1041D00013D0114653EA010019D0C8F140025046ED
:1041E00000F04FF805460E4650465946424600F04C
:1041F00039F8084305D0012004E020463946BDE8DF
:10420000F08D0020054346EAE0762C4337430A98B8
:104210006305E40AA0EB08000022FD0A44EA4754C3
:104220000A3002D500200146E9E70105101969416D
:10423000DDE9084500196941BDE8F04DA2E700003D
:10424000064C074D06E0E06840F0010394E80700E3
:1042500098471034AC42F6D3FBF79AFF204600088B
:1042600040460008202A04DB203A00FA02F1002030
:1042700070479140C2F1200320FA03F319439040A4
:104280007047202A04DB203A21FA02F0002170470F
:1042900021FA02F3D040C2F12002914008431946AE
:1042A00070474100080218BF04200A0E18BF40F0F2
:1042B00001004FF07F4232EA010108BF40F00200E6
:1042C000012808BF0520704700B510EE101A2DED2B
:1042D000028B81B0524A6846B2EB410F2ED94FF0A3
:1042E000E640B0EB410F94BF00204FF0FF3000904C
:1042F0000098B0EE408A00286ADB10F0010F4BD026
:1043000068EE080A9FED471A9FED470A00EE810A02
:104310009FED461A10F0020F00EE801AB7EE000A69
:1043200000EE810A02BF01B0BDEC028B00BD00BFF0
:1043300001B0B1EE400ABDEC028B00BD3C4B21F058
:104340000042934241D911F0004FDFED3A0A20EECE
:10435000201ADFED390A19BF31EE601A71EE200A1A
:1043600031EE201A71EE600ABDEEE01A11EE100A6D
:104370009FED321A00F0030000EEC10A9FED301AE3
:10438000009000EEC10A9FED2F1A00EEC10A9FEDCA
:104390002E1A00EEC10AABE728EE080A9FED2B1A91
:1043A000DFED2B0A10F0020F40EE410A9FED291AB3
:1043B00000EE201A61EE000AB0EE480A08EE200A6C
:1043C000B6D101B0BDEC028B00BD00F059F88FE70B
:1043D00018EE100A4000B0F17F4F0DD218EE100A0F
:1043E000FFF75FFF042808BF00F042F8B0EE480A6C
:1043F00001B0BDEC028B00BD09D1012000F0FAF83C
:1044000001B0BDEC028B5DF804EB00F029B801B0FF
:10441000B0EE480ABDEC028B5DF804EB00F01CB86E
:10442000B61F927EB93AB2BACA9F2A3DDDFFFFBEDF
:10443000490E494683F9223F0000004B0000C93F66
:1044400000A0FD390020A2331A61342C336D4C39A1
:10445000DA82083CA0AA2ABE30EE000A70470000AB
:10446000DFED020A80EEA00A7047000000000000A5
:104470009FED020A20EE000A7047000000000010C5
:104480002DE9F0014FF07F42B2EB410F9FBF4FF09B
:10449000FF310160BDE8F00170474FF0004242EA91
:1044A0000123C1F3C752783A551112F01F0C434C47
:1044B000CCF120067C44C1F3C752A2F178024FEA46
:1044C000621204EB820254F8254008BFD2E901567B
:1044D00012D0556804FA0CF425FA06F73C439768A5
:1044E00005FA0CF527FA06F8D26807FA0CFCF24038
:1044F00045EA08054CEA0206A4FB034CA5FB03525F
:10450000A6FB03631D449D4234BF012600261319F8
:10451000334416B1934202D903E0934201D20122FF
:1045200000E00022624402F1200C9206DC0C42EA18
:10453000443200EE102A5B03DFED210AF8EEC01AC8
:1045400000EE103A4FEA9C1C11F0004FB8EE400A02
:10455000C0F800C020EE201A00EE105ADFED190A54
:10456000B8EE400A20EE200A71EE810A70EE800A51
:1045700010EE902A02F500626FF30B0200EE902A13
:1045800070EEE11A31EEC11ADFED101A30EE411A69
:104590009FED0D0A20EE800A01EE210A9FED0C1A14
:1045A00000EE810A04BFBDE8F0017047CCF18051F4
:1045B0000160BDE8F001B1EE400A7047480100001B
:1045C000000000360000802C22AAFD29DB0FC92F35
:1045D0000000C92F02E008C8121F08C1002AFAD142
:1045E00070477047002001E001C1121F002AFBD173
:1045F0007047000001490860704700005400002027
:10460000000000006E83F9A22915444ED15727FC03
:10461000C0DD34F5999562DB4190433CAB6351FEBC
:10462000404600080000002058000000D445000863
:104630009846000858000020083D0000E4450008A6
:10464000007A030A000000000000000001020304D9
:104650000607080900000000010203040102030428
:10466000060708090000000000000000000000002C
:10467000000000000000000000000000000000003A
:10468000000000000000000000000000000000002A
:08469000000000000000000022
:040000050800018965
:00000001FF
